:020000040800F2
:1000000000000220552F0008212E00082F2E000886
:10001000352E00083B2E0008412E0008000000008D
:10002000000000000000000000000000472E000853
:10003000552E000800000000632E0008712E0008F5
:10004000A52F0008A52F0008A52F0008A52F000840
:10005000A52F0008A52F0008A52F0008A52F000830
:10006000A52F0008A52F0008A52F0008A52F000820
:10007000A52F0008A52F0008A52F0008A52F000810
:10008000A52F0008A52F0008A52F0008A52F000800
:10009000A52F0008A52F0008A52F0008A52F0008F0
:1000A000A52F0008A52F0008A52F0008A52F0008E0
:1000B000A52F0008A52F0008A52F0008A52F0008D0
:1000C000A52F0008A52F0008A52F0008A52F0008C0
:1000D000A52F0008A52F00087D2E0008A52F0008D9
:1000E000A52F0008A52F0008A52F0008A52F0008A0
:1000F000A52F0008A52F0008A52F0008A52F000890
:10010000A52F0008A52F0008A52F0008A52F00087F
:10011000A52F0008A52F0008A52F0008A52F00086F
:10012000A52F0008A52F0008A52F0008A52F00085F
:10013000A52F0008A52F0008A52F0008A52F00084F
:10014000A52F0008A52F0008A52F0008A52F00083F
:10015000A52F0008A52F0008A52F0008A52F00082F
:10016000A52F0008A52F0008A52F0008A52F00081F
:10017000A52F0008A52F0008A52F000800000000EB
:08018000A52F0008A52F0008BF
:1001900010B5054C237833B9044B13B10448AFF3C1
:1001A00000800123237010BD980000200000000093
:1001B000B838000808B5034B1BB103490348AFF337
:1001C000008008BD000000009C000020B838000836
:1001D000034613F8012B002AFBD1181A0138704787
:1001E00001F0FF01102A2BDB10F0070F08D010F8E8
:1001F000013B013A8B422DD010F0070F42B3F6D1EC
:10020000F0B441EA012141EA014122F007047FF004
:1002100000070023F0E80256083C85EA010586EA5B
:10022000010685FA47F5A3FA87F586FA47F6A5FA97
:1002300087F68EB9EED1F0BC01F0FF0102F00702A3
:1002400032B110F8013B013A83EA010313B1F8D14E
:100250000020704701387047002D06BF354603382F
:10026000073815F0010F07D1013015F4807F02BF68
:10027000013015F4C03F0130F0BC0138704700BFB9
:1002800053B94AB9002908BF00281CBF4FF0FF31FD
:100290004FF0FF3000F07AB9ADF1080C6DE904CEF3
:1002A00000F006F8DDF804E0DDE9022304B0704751
:1002B0002DE9F0478C460D460446089E002B51D18F
:1002C0008A4217466DD9B2FA82FEBEF1000F0BD0FA
:1002D000CEF1200C01FA0EF520FA0CFC02FA0EF712
:1002E0004CEA050C00FA0EF44FEA174A250CBCFB49
:1002F000FAF81FFA87F90AFB18CC45EA0C4508FB07
:1003000009F3AB420AD9ED1908F1FF3280F02381DD
:10031000AB4240F22081A8F102083D44ED1AA4B29C
:10032000B5FBFAF00AFB105544EA054400FB09F955
:10033000A14509D9E41900F1FF3380F00A81A145F4
:1003400040F2078102383C44A4EB090440EA08402B
:100350000021002E61D024FA0EF400233460736073
:10036000BDE8F0878B4207D9002E54D0002186E8E3
:1003700021000846BDE8F087B3FA83F1002940F078
:100380008E80AB4202D3824200F2FA80841A65EB7F
:1003900003050120AC46002E3FD086E81010BDE8D2
:1003A000F08712B90127B7FBF2F7B7FA87FEBEF163
:1003B000000F34D1EB1B3A0C1FFA87FC0121B3FB71
:1003C000F2F8250C02FB183345EA03450CFB08F351
:1003D000AB4207D9ED1908F1FF3002D2AB4200F26F
:1003E000D1808046ED1AA3B2B5FBF2F002FB1055A6
:1003F00043EA05440CFB00FCA44507D9E41900F1CD
:10040000FF3302D2A44500F2B8801846A4EB0C04D6
:1004100040EA08409DE731463046BDE8F087CEF11E
:10042000200405FA0EF307FA0EF720FA04F83A0C46
:1004300025FA04F448EA0308B4FBF2F14FEA184540
:1004400002FB11441FFA87FC45EA044501FB0CF34B
:10045000AB4200FA0EF409D9ED1901F1FF3080F03A
:100460008A80AB4240F2878002393D44EB1A1FFA82
:1004700088F5B3FBF2F002FB103345EA034500FBBD
:100480000CF3AB4207D9ED1900F1FF386FD2AB4244
:100490006DD902383D44EB1A40EA01418FE7C1F1C2
:1004A000200722FA07F88B4005FA01F448EA030313
:1004B00020FA07FE4FEA134CFD404EEA040EB5FB4E
:1004C000FCF94FEA1E440CFB19551FFA83F844EA65
:1004D000054509FB08F4AC4202FA01F200FA01FA00
:1004E00008D9ED1809F1FF3043D2AC4241D9A9F146
:1004F00002091D442D1B1FFA8EFEB5FBFCF00CFB00
:1005000010554EEA054400FB08F8A04507D9E41849
:1005100000F1FF3529D2A04527D902381C4440EA12
:100520000940A4EB0804A0FB02894C45C6464D4691
:1005300015D312D056B1BAEB0E0364EB050404FADE
:1005400007F7CB401F43CC40376074600021BDE803
:10055000F0871846F8E69046E0E6C245EAD2B8EBE6
:10056000020E69EB03050138E4E72846D7E7404669
:1005700091E78146BEE7014678E702383C4445E70B
:10058000084608E7A8F102083D442BE7704700BF82
:1005900080B500AF0E4A0E4B1B6843F40073136026
:1005A0000B4A0B4B1B6843F480631360084A084BEB
:1005B0001B6843F480731360032000F04BF90020A4
:1005C00000F008F802F07EFB0023184680BD00BF53
:1005D000003C024080B582B000AF7860124B1A68D0
:1005E000124B1B7819464FF47A73B3FBF1F3B2FB4D
:1005F000F3F3184600F063F90346002B01D0012302
:100600000EE07B680F2B0AD8002279684FF0FF308C
:1006100000F02BF9064A7B681360002300E00123F9
:1006200018460837BD4680BD300000200400002079
:100630000000002080B400AF064B1B781A46064B22
:100640001B681344044A136000BFBD465DF8047B79
:10065000704700BF04000020A008002080B400AF55
:10066000034B1B681846BD465DF8047B704700BF0E
:10067000A008002080B584B000AF7860FFF7EEFFDF
:10068000B8607B68FB60FB68B3F1FF3F05D0094BA6
:100690001B781A46FB681344FB6000BFFFF7DEFFC0
:1006A0000246BB68D21AFB689A42F7D300BF1037E4
:1006B000BD4680BD0400002080B485B000AF7860E6
:1006C0007B6803F00703FB600C4BDB68BB60BA6818
:1006D0004FF6FF031340BB60FB681A02BB6813436D
:1006E00043F0BF6343F40033BB60044ABB68D3608C
:1006F00000BF1437BD465DF8047B704700ED00E095
:1007000080B400AF044BDB681B0A03F007031846F4
:10071000BD465DF8047B704700ED00E080B483B017
:1007200000AF0346FB7197F90730002B0BDB09493B
:1007300097F907305B09FA7902F01F02012000FAED
:1007400002F241F8232000BF0C37BD465DF8047B60
:10075000704700BF00E100E080B483B000AF034603
:100760003960FB7197F90730002B0ADB0D4997F9C7
:1007700007303A68D2B21201D2B20B4483F8002398
:100780000AE00949FB7903F00F03043B3A68D2B24F
:100790001201D2B20B441A7600BF0C37BD465DF889
:1007A000047B704700E100E000ED00E080B489B018
:1007B00000AFF860B9607A60FB6803F00703FB6183
:1007C000FB69C3F10703042B28BF0423BB61FB694A
:1007D0000433062B02D9FB69033B00E000237B6155
:1007E0000122BB6902FA03F35A1EBB681A407B69F7
:1007F0009A4001217B6901FA03F3591E7B680B4083
:10080000134318462437BD465DF8047B704700004B
:1008100080B582B000AF78607B68013BB3F1807F28
:1008200001D301230FE00A4A7B68013B53600F218B
:100830004FF0FF30FFF790FF054B00229A60044B0A
:1008400007221A60002318460837BD4680BD00BF46
:1008500010E000E080B582B000AF78607868FFF704
:100860002BFF00BF0837BD4680BD80B586B000AF06
:100870000346B9607A60FB7300237B61FFF740FF9A
:1008800078617A68B9687869FFF790FF024697F94E
:100890000F3011461846FFF75FFF00BF1837BD46FF
:1008A00080BD80B582B000AF0346FB7197F9073079
:1008B0001846FFF733FF00BF0837BD4680BD80B53F
:1008C00082B000AF78607868FFF7A2FF0346184651
:1008D0000837BD4680BD80B483B000AF78607B68C8
:1008E00093F83530DBB2022B04D07B6880225A6546
:1008F00001230CE07B68052283F835207B681B68A8
:100900007A681268126822F001021A600023184601
:100910000C37BD465DF8047B7047000080B489B099
:1009200000AF7860396000237B6100233B610023C6
:10093000BB610023FB616BE10122FB6902FA03F357
:100940007B613B681A687B6913403B613A697B694C
:100950009A4240F05A813B685B68012B0BD03B68A0
:100960005B68022B07D03B685B68112B03D03B68A8
:100970005B68122B30D17B689B68BB61FB695B00B5
:10098000032202FA03F3DB43BA691340BB613B68FD
:10099000DA68FB695B0002FA03F3BA691343BB61CF
:1009A0007B68BA699A607B685B68BB610122FB69FE
:1009B00002FA03F3DB43BA691340BB613B685B682F
:1009C0001B0903F00102FB6902FA03F3BA6913433E
:1009D000BB617B68BA695A607B68DB68BB61FB6995
:1009E0005B00032202FA03F3DB43BA691340BB61E5
:1009F0003B689A68FB695B0002FA03F3BA69134328
:100A0000BB617B68BA69DA603B685B68022B03D024
:100A10003B685B68122B23D1FB69DA087B680832DC
:100A200053F82230BB61FB6903F007039B000F22E0
:100A300002FA03F3DB43BA691340BB613B681A69EE
:100A4000FB6903F007039B0002FA03F3BA6913433F
:100A5000BB61FB69DA087B680832B96943F8221088
:100A60007B681B68BB61FB695B00032202FA03F32E
:100A7000DB43BA691340BB613B685B6803F0030268
:100A8000FB695B0002FA03F3BA691343BB617B683D
:100A9000BA691A603B685B6803F08053002B00F072
:100AA000B4800023FB605F4A5E4B5B6C43F4804381
:100AB00053645C4B5B6C03F48043FB60FB685A4AF5
:100AC000FB699B08023352F82330BB61FB6903F0DA
:100AD00003039B000F2202FA03F3DB43BA691340BE
:100AE000BB617B68514A93422BD07B68504A93424A
:100AF00025D07B684F4A93421FD07B684E4A934271
:100B000019D07B684D4A934213D07B684C4A93427C
:100B10000DD07B684B4A934207D07B684A4A934288
:100B200001D107230EE008230CE006230AE0052389
:100B300008E0042306E0032304E0022302E001238B
:100B400000E00023FA6902F0030292009340BA69C0
:100B50001343BB613449FB699B080233BA6941F80E
:100B600023203A4B1B68BB613B69DB43BA691340E6
:100B7000BB613B685B6803F48033002B03D0BA6928
:100B80003B691343BB61314ABB6913602F4B5B6800
:100B9000BB613B69DB43BA691340BB613B685B687F
:100BA00003F40033002B03D0BA693B691343BB61E4
:100BB000264ABB695360254B9B68BB613B69DB439D
:100BC000BA691340BB613B685B6803F48013002B78
:100BD00003D0BA693B691343BB611C4ABB6993608C
:100BE0001A4BDB68BB613B69DB43BA691340BB61ED
:100BF0003B685B6803F40013002B03D0BA693B69C0
:100C00001343BB61114ABB69D360FB690133FB61CC
:100C1000FB690F2B7FF690AE00BF2437BD465DF811
:100C2000047B704700380240003801400000024059
:100C30000004024000080240000C02400010024084
:100C40000014024000180240001C0240003C014019
:100C500080B483B000AF78600B467B8013467B7016
:100C60007B78002B03D07A887B689A6103E07B88CD
:100C70001A047B689A6100BF0C37BD465DF8047B9F
:100C80007047000080B586B000AF78607B68002BAD
:100C900001D101235BE27B681B6803F00103002B99
:100CA00075D0A34B9B6803F00C03042B0CD0A04B16
:100CB0009B6803F00C03082B12D19D4B5B6803F477
:100CC0008003B3F5800F0BD1994B1B6803F40033FD
:100CD000002B5BD07B685B68002B57D1012336E289
:100CE0007B685B68B3F5803F06D1914A904B1B68E7
:100CF00043F4803313601DE07B685B68B3F5A02F7D
:100D00000CD18B4A8A4B1B6843F480231360884ABA
:100D1000874B1B6843F4803313600BE0844A844B99
:100D20001B6823F480331360814A814B1B6823F4D2
:100D3000802313607B685B68002B13D0FFF78EFC69
:100D4000386108E0FFF78AFC02463B69D31A642B3E
:100D500001D90323FBE1764B1B6803F40033002B1E
:100D6000F0D014E0FFF77AFC386108E0FFF776FC7A
:100D700002463B69D31A642B01D90323E7E16C4B8C
:100D80001B6803F40033002BF0D100E000BF7B6848
:100D90001B6803F00203002B63D0654B9B6803F0D4
:100DA0000C03002B0BD0624B9B6803F00C03082B49
:100DB0001CD15F4B5B6803F48003002B16D15C4BA6
:100DC0001B6803F00203002B05D07B68DB68012B56
:100DD00001D00123BBE15649554B1B6823F0F802B3
:100DE0007B681B69DB0013430B603AE07B68DB68C0
:100DF000002B20D04F4B01221A60FFF72FFC3861E7
:100E000008E0FFF72BFC02463B69D31A022B01D9FD
:100E100003239CE1464B1B6803F00203002BF0D038
:100E20004349434B1B6823F0F8027B681B69DB00D6
:100E300013430B6015E03F4B00221A60FFF70EFCD6
:100E4000386108E0FFF70AFC02463B69D31A022B1F
:100E500001D903237BE1364B1B6803F00203002B0F
:100E6000F0D17B681B6803F00803002B30D07B684F
:100E70005B69002B16D0304B01221A60FFF7EEFBA6
:100E8000386108E0FFF7EAFB02463B69D31A022B00
:100E900001D903235BE1264B5B6F03F00203002BB8
:100EA000F0D015E0244B00221A60FFF7D7FB386121
:100EB00008E0FFF7D3FB02463B69D31A022B01D9A6
:100EC000032344E11A4B5B6F03F00203002BF0D1C4
:100ED0007B681B6803F00403002B00F0A080002354
:100EE000FB75134B1B6C03F08053002B0FD10023B9
:100EF000BB600F4A0E4B1B6C43F0805313640C4BCA
:100F00001B6C03F08053BB60BB680123FB750B4B6C
:100F10001B6803F48073002B21D1084A074B1B6820
:100F200043F480731360FFF799FB386111E000BF51
:100F30000038024000004742800E474200700040E7
:100F4000FFF78CFB02463B69D31A022B01D903231E
:100F5000FDE0814B1B6803F48073002BF0D07B68AD
:100F60009B68012B06D17D4A7C4B1B6F43F001032C
:100F700013671CE07B689B68052B0CD1774A774B85
:100F80001B6F43F004031367744A744B1B6F43F0E9
:100F9000010313670BE0714A704B1B6F23F00103D1
:100FA00013676E4A6D4B1B6F23F0040313677B6856
:100FB0009B68002B15D0FFF751FB38610AE0FFF763
:100FC0004DFB02463B69D31A41F28832934201D964
:100FD0000323BCE0614B1B6F03F00203002BEED038
:100FE00014E0FFF73BFB38610AE0FFF737FB0246EE
:100FF0003B69D31A41F28832934201D90323A6E018
:10100000564B1B6F03F00203002BEED1FB7D012B2F
:1010100005D1524A514B1B6C23F0805313647B68FB
:101020009B69002B00F092804C4B9B6803F00C03F3
:10103000082B5CD07B689B69022B41D1484B002276
:101040001A60FFF70BFB386108E0FFF707FB024669
:101050003B69D31A022B01D9032378E03F4B1B686D
:1010600003F00073002BF0D13C497B68DA697B68A0
:101070001B6A1A437B685B6A9B011A437B689B6A05
:101080005B08013B1B041A437B68DB6A1B061343A6
:101090004B60334B01221A60FFF7E0FA386108E039
:1010A000FFF7DCFA02463B69D31A022B01D903236E
:1010B0004DE02A4B1B6803F00073002BF0D045E095
:1010C000274B00221A60FFF7C9FA386108E0FFF7E2
:1010D000C5FA02463B69D31A022B01D9032336E035
:1010E0001E4B1B6803F00073002BF0D12EE07B68D1
:1010F0009B69012B01D1012329E0184B9B68FB6000
:10110000FB6803F480027B68DB699A421CD1FB68B0
:1011100003F03F027B681B6A9A4215D1FA6847F6D2
:10112000C07313407A68526A93420DD1FB6803F48E
:1011300040327B689B6A9A4206D1FB6803F070627A
:101140007B68DB6A9A4201D0012300E00023184645
:101150001837BD4680BD00BF007000400038024017
:101160006000474280B584B000AF786039607B682A
:10117000002B01D10123CCE0684B1B6803F00F0268
:101180003B689A420CD2654B3A68D2B21A70634BF4
:101190001B6803F00F023B689A4201D00123B8E0BC
:1011A0007B681B6803F00203002B20D07B681B6860
:1011B00003F00403002B05D0594A594B9B6843F4B4
:1011C000E05393607B681B6803F00803002B05D095
:1011D000534A534B9B6843F4604393605049504BD0
:1011E0009B6823F0F0027B689B6813438B607B68ED
:1011F0001B6803F00103002B44D07B685B68012B64
:1012000007D1474B1B6803F40033002B19D101238E
:101210007FE07B685B68022B03D07B685B68032BF5
:1012200007D13F4B1B6803F00073002B09D101234A
:101230006FE03B4B1B6803F00203002B01D101233D
:1012400067E03749364B9B6823F003027B685B6895
:1012500013438B60FFF702FAF8600AE0FFF7FEF92C
:101260000246FB68D31A41F28832934201D9032324
:101270004FE02B4B9B6803F00C027B685B689B0084
:101280009A42EBD1254B1B6803F00F023B689A4250
:101290000CD9224B3A68D2B21A70204B1B6803F06B
:1012A0000F023B689A4201D0012332E07B681B6841
:1012B00003F00403002B08D01949194B9B6823F451
:1012C000E0527B68DB6813438B607B681B6803F02C
:1012D0000803002B09D01249114B9B6823F460428C
:1012E0007B681B69DB0013438B6000F021F801462B
:1012F0000B4B9B681B0903F00F030A4AD35C21FACE
:1013000003F3094A1360094B1B681846FFF762F99B
:10131000002318461037BD4680BD00BF003C024088
:1013200000380240A03B00083000002000000020F0
:101330002DE9F04F8FB000AF0023FB6200237B63E9
:101340000023BB6200233B63624B9B6803F00C03EA
:10135000042B07D0082B08D0002B40F0B2805E4B46
:101360003B63B1E05D4B3B63AEE05A4B5B6803F01F
:101370003F03FB62574B5B6803F48003002B4ED0A6
:10138000544B5B689B094FF0000440F2FF114FF093
:10139000000201EA030102EA04020B46144660015E
:1013A0007862786A40EAD36078625B013B62D7E991
:1013B00008345B1A64EB02044FEA841949EA936922
:1013C0004FEA8318B8EB030869EB04094FEAC90335
:1013D000FB61FB6943EA5873FB614FEAC803BB61D9
:1013E000D7E9068918EB010849EB02094FEA4923BE
:1013F0007B617B6943EAD8537B614FEA48233B61B9
:10140000D7E9048940464946FB6A4FF000041A4672
:101410002346FEF735FF03460C467B6343E02D4B26
:101420005B689B094FF0000440F2FF114FF000028F
:1014300001EA030102EA04020B4614466001F86067
:10144000F86840EAD360F8605B01BB60D7E902341A
:101450005B1A64EB0204A60146EA93669D01ED1A4D
:1014600066EB0406F3007B607B6843EA55737B60A0
:10147000EB003B6097E860006D1846EB02064FEA10
:10148000862B4BEA955B4FEA852A55465E462846F1
:101490003146FB6A4FF000041A462346FEF7F0FE81
:1014A00003460C467B630B4B5B681B0C03F003038A
:1014B00001335B00BB627A6BBB6AB2FBF3F33B6345
:1014C00002E0054B3B6300BF3B6B18463C37BD4613
:1014D000BDE8F08F003802400024F40000127A00CA
:1014E00080B400AF034B1B681846BD465DF8047B13
:1014F000704700BF3000002080B500AFFFF7F0FF5D
:101500000146054B9B689B0A03F00703034AD35C23
:1015100021FA03F3184680BD00380240B03B0008B2
:1015200080B500AFFFF7DCFF0146054B9B685B0B06
:1015300003F00703034AD35C21FA03F3184680BD86
:1015400000380240B03B000880B582B000AF786040
:101550007B68002B01D101233FE07B6893F8393091
:10156000DBB2002B06D17B68002283F83820786834
:1015700001F0D0FB7B68242283F839207B681B684C
:101580007A681268D26822F40052DA60786800F053
:1015900049FB7B681B687A681268126922F49042E2
:1015A0001A617B681B687A681268526922F02A0205
:1015B0005A617B681B687A681268D26842F40052EC
:1015C000DA607B680022DA637B68202283F83920A6
:1015D0007B68202283F83A20002318460837BD464E
:1015E00080BD80B588B002AFF860B9603B6013463B
:1015F000FB8000237B61FB6893F83930DBB2202B42
:1016000040F08280BB68002B02D0FB88002B01D108
:1016100001237AE0FB6893F83830012B01D10223D3
:1016200073E0FB68012283F83820FB680022DA634C
:10163000FB68212283F83920FFF710F87861FB68F6
:10164000FA889A84FB68FA88DA84FB68002283F8B7
:10165000382041E0FB68DB8C9BB2013B9AB2FB680F
:10166000DA84FB689B68B3F5805F21D13B68009307
:101670007B6900228021F86800F06AF90346002B9C
:1016800001D0032341E0BB683B61FB681B683A69FA
:101690001288C2F308025A60FB681B69002B03D151
:1016A000BB680233BB6017E0BB680133BB6013E06B
:1016B0003B6800937B6900228021F86800F048F9BC
:1016C0000346002B01D003231FE0FB681A68BB68A8
:1016D000591CB9601B785360FB68DB8C9BB2002BF4
:1016E000B8D13B6800937B6900224021F86800F084
:1016F0002FF90346002B01D0032306E0FB682022CC
:1017000083F83920002300E0022318461837BD462D
:1017100080BD000080B588B000AF78607B681B6832
:101720001B68FB617B681B68DB68BB617B681B68AF
:101730005B697B6100233B610023FB60FB6903F075
:101740000F033B613B69002B0DD1FB6903F02003C4
:10175000002B08D0BB6903F02003002B03D078686E
:1017600000F0DFF9D1E03B69002B00F0B0807B692D
:1017700003F00103002B05D1BB6903F49073002B28
:1017800000F0A580FB6903F00103002B0AD0BB69C0
:1017900003F48073002B05D07B68DB6B43F0010200
:1017A0007B68DA63FB6903F00403002B0AD07B69D2
:1017B00003F00103002B05D07B68DB6B43F00202D2
:1017C0007B68DA63FB6903F00203002B0AD07B69B4
:1017D00003F00103002B05D07B68DB6B43F00402B0
:1017E0007B68DA63FB6903F00803002B0FD0BB6949
:1017F00003F02003002B04D17B6903F00103002BCD
:1018000005D07B68DB6B43F008027B68DA637B689A
:10181000DB6B002B78D0FB6903F02003002B07D093
:10182000BB6903F02003002B02D0786800F079F93F
:101830007B681B685B6903F04003402B0CBF0123EE
:101840000023DBB2FB607B68DB6B03F00803002B3B
:1018500002D1FB68002B31D0786800F0C3F87B68B8
:101860001B685B6903F04003402B23D17B681B6836
:101870007A681268526922F040025A617B685B6B99
:10188000002B13D07B685B6B214A1A657B685B6B0E
:101890001846FFF720F80346002B16D07B685B6BD9
:1018A0001B6D7A68526B104698470EE0786800F01E
:1018B00045F80AE0786800F041F806E0786800F042
:1018C0003DF87B680022DA631EE000BF1CE0FB6984
:1018D00003F08003002B08D0BB6903F08003002BCA
:1018E00003D0786800F0B0F80FE0FB6903F0400324
:1018F000002B0AD0BB6903F04003002B05D07868A9
:1019000000F0F7F800BF00E000BF2037BD4680BD03
:10191000211A000880B483B000AF786000BF0C3794
:10192000BD465DF8047B704780B483B000AF78603B
:1019300000BF0C37BD465DF8047B704780B483B0B0
:1019400000AF786000BF0C37BD465DF8047B704780
:1019500080B584B000AFF860B9603B601346FB719E
:101960002CE0BB69B3F1FF3F28D0BB69002B07D047
:10197000FEF774FE02463B68D21ABB699A421DD933
:10198000FB681B68FA681268D26822F4D072DA60C9
:10199000FB681B68FA681268526922F001025A61FA
:1019A000FB68202283F83920FB68202283F83A2044
:1019B000FB68002283F8382003230FE0FB681B68D4
:1019C0001A68BB681A40BB689A420CBF0123002307
:1019D000DBB21A46FB799A42C3D00023184610376F
:1019E000BD4680BD80B483B000AF78607B681B6863
:1019F0007A681268D26822F49072DA607B681B6899
:101A00007A681268526922F001025A617B682022CA
:101A100083F83A2000BF0C37BD465DF8047B704761
:101A200080B584B000AF78607B689B6BFB60FB681F
:101A30000022DA85FB680022DA84F868FFF77EFF6F
:101A400000BF1037BD4680BD80B485B000AF786060
:101A50007B6893F83930DBB2212B43D17B689B68DC
:101A6000B3F5805F19D17B681B6AFB607B681B68DC
:101A7000FA681288C2F308025A607B681B69002B5F
:101A800005D17B681B6A9A1C7B681A620EE07B6832
:101A90001B6A5A1C7B681A6208E07B681A687B68BC
:101AA0001B6A581C796808621B7853607B68DB8C62
:101AB0009BB2013B9BB27A681946D184002B0FD1AF
:101AC0007B681B687A681268D26822F08002DA604C
:101AD0007B681B687A681268D26842F04002DA605C
:101AE000002300E0022318461437BD465DF8047B4E
:101AF000704780B582B000AF78607B681B687A68F9
:101B00001268D26822F04002DA607B68202283F8F3
:101B100039207868FFF7FEFE002318460837BD46D7
:101B200080BD80B584B000AF78607B6893F83A30B0
:101B3000DBB2222B71D17B689B68B3F5805F23D128
:101B40007B689B6AFB607B681B69002B0ED17B68FE
:101B50001B685B689BB2C3F308039AB2FB681A80E8
:101B60007B689B6A9A1C7B689A6229E07B681B6889
:101B70005B689BB2DBB29AB2FB681A807B689B6A97
:101B80005A1C7B689A621BE07B681B69002B0AD198
:101B90007B689B6A591C7A6891627A6812685268FD
:101BA000D2B21A700CE07B689B6A591C7A68916209
:101BB0007A6812685268D2B202F07F02D2B21A700A
:101BC0007B68DB8D9BB2013B9BB27A681946D1855D
:101BD000002B20D17B681B687A681268D26822F0DB
:101BE0002002DA607B681B687A681268D26822F487
:101BF0008072DA607B681B687A681268526922F02A
:101C000001025A617B68202283F83A207868FFF746
:101C10008BFE002302E0002300E002231846103769
:101C2000BD4680BD2DE9F04FA3B000AFF867FB6F54
:101C30001968FB6F1B681B6923F44052FB6FDB685C
:101C400013430B61FB6F9A68FB6F1B691A43FB6FB1
:101C50005B691A43FB6FDB691343C7F88430FB6F82
:101C60001968FB6F1B68DB6823F4164222F00C0234
:101C7000D7F884301343CB60FB6F1968FB6F1B6888
:101C80005B6923F44072FB6F9B6913434B61FB6FED
:101C9000DB69B3F5004F40F07181FB6F1B68B44AFC
:101CA000934205D0FB6F1B68B24A934240F0B1806B
:101CB000FFF736FCC7F88000FB6F1D68D7F880304F
:101CC00019464FF000020B461446DB1844EB04049F
:101CD0005B1844EB0204E0007864786C40EA5370CF
:101CE0007864DB003B64D7E9103413EB010844EB64
:101CF000020940464946FB6F5B684FF00004DB1861
:101D000044EB04041A462346FEF7BAFA03460C468F
:101D10001A46994BA3FB02235B091E01D7F88030BA
:101D200019464FF000020B461446DB1844EB04043E
:101D30005B1844EB0204E000F863F86B40EA537070
:101D4000F863DB00BB63D7E90E3413EB010844EB07
:101D5000020940464946FB6F5B684FF00004DB1800
:101D600044EB04041A462346FEF78AFA03460C465F
:101D70001A46814BA3FB02135B09642101FB03F3A9
:101D8000D31ADB0032337C4AA2FB03235B095B00DE
:101D900003F4F8731E44D7F8803019464FF0000260
:101DA0000B461446DB1844EB04045B1844EB0204B6
:101DB000E0007863786B40EA53707863DB003B6344
:101DC000D7E90C3413EB010844EB020940464946BD
:101DD000FB6F5B684FF00004DB1844EB04041A4609
:101DE0002346FEF74DFA03460C461A46624BA3FB08
:101DF00002135B09642101FB03F3D31ADB003233C6
:101E00005D4AA2FB03235B0903F007033344AB6085
:101E100040E2FFF771FBC7F88000FB6F1A683A6772
:101E2000D7F8803019464FF000020B461446DB18F5
:101E300044EB04045B1844EB0204E000F862F86A27
:101E400040EA5370F862DB00BB62D7E90A345D18E0
:101E500044EB020628463146FB6F5B684FF00004F6
:101E6000DB1844EB04041A462346FEF709FA03463E
:101E70000C461A46404BA3FB02235B091E01D7F810
:101E8000803019464FF000020B461446DB1844EB35
:101E900004045B1844EB02044FEAC40B4BEA537B87
:101EA0004FEAC30A53465C4613EB010A44EB020BAC
:101EB00050465946FB6F5B684FF00004DB1844EB5B
:101EC00004041A462346FEF7DBF903460C461A467D
:101ED000294BA3FB02135B09642101FB03F3D31A13
:101EE000DB003233244AA2FB03235B095B0003F4CB
:101EF000F8731E44D7F8803019464FF000020B46A5
:101F00001446DB1844EB04045B1844EB02044FEA6C
:101F1000C40949EA53794FEAC30843464C4613EBD8
:101F2000010844EB020940464946FB6F5B684FF0ED
:101F30000004DB1844EB04041A462346FEF7A0F91C
:101F400003460C461A460C4BA3FB02135B096421A3
:101F500001FB03F3D31ADB003233074AA2FB03234E
:101F60005B0903F0070333443A6F936092E100BFCB
:101F700000100140001401401F85EB51FB6F1A68EF
:101F8000C14B9A4205D0FB6F1A68C04B9A4240F091
:101F9000BF80FFF7C5FAC7F88000FB6F1E68D7F84F
:101FA000803019464FF000020B461446DB1844EB14
:101FB00004045B1844EB0204E0007862786A40EAAB
:101FC00053707862DB003B62D7E9083413EB0108F9
:101FD00044EB020940464946FB6F5B684FF0000442
:101FE000A200FA65FA6D42EA9372FA659B00BB653E
:101FF000D7E91623FEF744F903460C461A46A44BCC
:10200000A3FB02235B091D01D7F8803019464FF06E
:1020100000020B461446DB1844EB04045B1844EB47
:102020000204E000F861F86940EA5370F861DB00EF
:10203000BB61D7E9063413EB010844EB02094046C3
:102040004946FB6F5B684FF00004A2007A657A6D29
:1020500042EA93727A659B003B65D7E91423FEF749
:102060000FF903460C461A46894BA3FB02135B0982
:10207000642101FB03F3D31A1B013233844AA2FB10
:1020800003235B0903F0F0031D44D7F880301946A1
:102090004FF000020B461446DB1844EB04045B18B7
:1020A00044EB0204E0007861786940EA537078619B
:1020B000DB003B61D7E9043413EB010844EB020970
:1020C00040464946FB6F5B684FF00004A200FA648B
:1020D000FA6C42EA9372FA649B00BB64D7E912235C
:1020E000FEF7CEF803460C461A46694BA3FB0213D3
:1020F0005B09642101FB03F3D31A1B013233644AE9
:10210000A2FB03235B0903F00F032B44B360C1E080
:10211000FFF7F2F9C7F88000FB6F1B68BB65D7F8C3
:10212000803019464FF000020B461446DB1844EB92
:1021300004045B1844EB0204E60046EA5376DD0033
:102140002B4634465D1844EB020628463146FB6FA9
:102150005B684FF00004A5007D677D6F45EA9375CD
:102160007D679C003C67D7E91C23FEF789F803468E
:102170000C461A46464BA3FB02135B091D01D7F818
:10218000803019464FF000020B461446DB1844EB32
:1021900004045B1844EB0204E000F860F86840EACD
:1021A0005370F860D800B860D7E9023413EB010827
:1021B00044EB020940464946FB6F5B684FF0000460
:1021C000A600FE66FE6E46EA9376FE669C00BC663E
:1021D000D7E91A23FEF754F803460C461A462C4B4F
:1021E000A3FB02135B09642101FB03F3D31A1B0158
:1021F0003233274AA2FB03135B0903F0F0031D44AB
:10220000D7F8803019464FF000020B461446DB1811
:1022100044EB04045B1844EB0204E0007860786847
:1022200040EA53707860D800386097E8180013EBE4
:10223000010844EB020940464946FB6F5B684FF0DA
:102240000004A6007E667E6E46EA93767E669C005B
:102250003C66D7E91823FEF713F803460C461A46E6
:102260000B4BA3FB02135B09642101FB03F3D31A9D
:102270001B013233064AA2FB03135B0903F00F0371
:102280002B44BA6D936005E000100140001401403A
:102290001F85EB5100BF8C37BD46BDE8F08F00BFF6
:1022A00080B500AFFEF774F900F01AF800F0D6F828
:1022B00000F080F800F0A8F8064B1B68054A126889
:1022C000D26842F02002DA600349044800F026F99F
:1022D000FAE700BFC41E00202000002014000020E8
:1022E00080B594B000AF07F12003302200211846DA
:1022F00000F084FE07F10C0300221A605A609A6015
:10230000DA601A610023BB60284A284B1B6C43F03B
:1023100080531364254B1B6C03F08053BB60BB6878
:1023200000237B60224A224B1B6843F480431360E6
:102330001F4B1B6803F480437B607B6802233B6276
:102340000123FB6210233B630223BB630023FB6377
:1023500008233B64A8237B640223BB640423FB643F
:1023600007F120031846FEF78DFC0346002B01D031
:1023700000F0A0FC0F23FB6002233B6100237B6184
:102380004FF4A053BB614FF48053FB6107F10C0382
:1023900005211846FEF7E6FE0346002B01D000F0AB
:1023A00089FC00BF5037BD4680BD00BF00380240E9
:1023B0000070004080B500AF114B124A1A60104BFC
:1023C0004FF4E1325A600E4B00229A600C4B00220F
:1023D000DA600B4B00221A61094B0C225A61084B40
:1023E00000229A61064B0022DA610548FFF7ACF83B
:1023F0000346002B01D000F05DFC00BF80BD00BF94
:10240000C41E00200044004080B500AF114B124AAA
:102410001A60104B4FF4E1325A600E4B00229A6062
:102420000C4B0022DA600B4B00221A61094B0C2284
:102430005A61084B00229A61064B0022DA61054876
:10244000FFF782F80346002B01D000F033FC00BFF9
:1024500080BD00BF2C1C00200048004080B58AB021
:1024600000AF07F1140300221A605A609A60DA6024
:102470001A6100233B61274A264B1B6B43F0800304
:102480001363244B1B6B03F080033B613B69002308
:10249000FB60204A1F4B1B6B43F0010313631D4B72
:1024A0001B6B03F00103FB60FB680023BB60194A50
:1024B000184B1B6B43F002031363164B1B6B03F0AB
:1024C0000203BB60BB6800237B60124A114B1B6B8D
:1024D00043F0080313630F4B1B6B03F008037B608F
:1024E0007B6800224FF470410B48FEF7B1FB4FF4BC
:1024F00070437B610123BB610023FB6100233B62CE
:1025000007F1140319460448FEF708FA00BF2837FC
:10251000BD4680BD00380240000C0240F0B583B0DB
:1025200000AF78603960B54B1B780D2B00F28083CB
:1025300001A252F823F000BF712500089D25000874
:10254000192600084B260008E52600081127000878
:10255000492800087B280008412900087329000841
:10256000052A00083B2A0008F92A0008972B0008D2
:10257000A34BA44A1068186012791A7104239AB206
:102580004FF47A739E49A048FFF72BF89B4B01222A
:102590001A704FF4FA70FEF76DF849E39B499C48B6
:1025A00000F075FD0346002B1BD000F063FB944A3E
:1025B000984B15461C460FCC28606960AA60EB60FA
:1025C0002388A2782B821346AB7412239AB24FF45D
:1025D0007A738B499048FFF704F8884B02221A70EF
:1025E00026E300F047FB864A8C4B15461C460FCC71
:1025F00028606960AA60EB6020682861A388AB82CC
:1026000015239AB24FF47A737D498348FEF7E9FFA8
:102610007A4B00221A700BE3794A814B144607CBA0
:1026200020606160A2601B7823730C239AB24FF480
:102630007A7373497448FEF7D4FF704B03221A7003
:102640004FF4FA70FEF716F8F2E27649704800F09F
:102650001EFD0346002B1BD000F00CFB684A724B9A
:1026600015461C460FCC28606960AA60EB60238881
:10267000A2782B821346AB7412239AB24FF47A736A
:102680005F496548FEF7ADFF5C4B04221A70CFE24C
:1026900000F0F0FA5A4A654B15461C460FCC2860EC
:1026A0006960AA60EB602068286113239AB24FF436
:1026B0007A7353495848FEF794FF514A5C4B1446CD
:1026C00007CB20606160A2601B88A3810D239AB2B2
:1026D0004FF47A734A494C48FEF783FF474B002278
:1026E0001A70A5E23B687A685249454800F08EFCB2
:1026F00003469AB24FF47A7341494348FEF771FF9B
:102700004FF4FA70FDF7B6FF3C4B05221A708FE2CA
:102710003E493F4800F0BBFC0346002B18D000F0B8
:10272000A9FA374A444B15461C460FCC286069600D
:10273000AA60EB602068286113239AB24FF47A7381
:102740002F493548FEF74DFF2C4B06221A706AE2DE
:1027500000F090FA2A4B394A14469E4604F1200CA8
:10276000754626460FCE28606960AA60EB6010347B
:102770000EF1100E6445F3D17346224610681860BE
:1027800023239AB24FF47A731D492348FEF729FF99
:102790002B4B1B6801332A4A136040F2E240FDF7DD
:1027A00069FF274B1B68052B40F03D82144B254ADF
:1027B00014469E4604F1200C754626460FCE28602E
:1027C0006960AA60EB6010340EF1100E6445F3D11D
:1027D0007246234603CB106051601B881381292366
:1027E0009AB24FF47A7306490B48FEF7FAFE034B90
:1027F00000221A70124B00221A6014E29008002086
:10280000D01C00206C390008C41E00207439000858
:10281000A4080020783900082C1C00208C390008FE
:10282000A4390008B4390008C0390008D4390008B8
:10283000E8390008F8390008103A0008243A00087E
:1028400088080020483A00089A4A9B4B03CB106046
:10285000516019889B78118193720A239AB24FF4C0
:102860007A7394499548FEF7BCFE4FF4FA70FDF771
:1028700001FF934B07221A70DAE19249924800F067
:1028800006FC0346002B35D08A4A904B144607CBF2
:1028900020606160A2601A889B78A281A3730E23D6
:1028A0009AB24FF47A7383498948FEF79AFE814AB7
:1028B000884B144607CB20606160A2601B88A3810F
:1028C0000D239AB24FF47A737A498148FEF789FE54
:1028D0008149784800F09AFB03469AB24FF47A7324
:1028E00074497B48FEF77DFE00F0C4F9744B082262
:1028F0001A709DE100F0BEF96E4B784A14469E4670
:1029000004F1200C754626460FCE28606960AA6047
:10291000EB6010340EF1100E6445F3D1734622467D
:102920001068186012791A7124239AB24FF47A73DE
:1029300060496748FEF755FE614B06221A7077E141
:102940005C4A674B144607CB20606160A2601B881D
:10295000A3810D239AB24FF47A7356495748FEF774
:1029600040FE4FF4FA70FDF785FE554B09221A70B0
:102970005EE15449544800F08AFB0346002B1BD00B
:102980004C4A584B14461D460FCD20606160A26032
:10299000E3600FCD20616161A261E3611F239AB200
:1029A0004FF47A7343494A48FEF71BFE00F062F980
:1029B000434B0A221A703BE13E4B4B4A14469E465B
:1029C00004F1200C754626460FCE28606960AA6087
:1029D000EB6010340EF1100E6445F3D173462246BD
:1029E0001188927819809A7022239AB24FF47A73E0
:1029F00030493748FEF7F5FD00F03CF9304B08222E
:102A00001A7015E12B4A394B15461C460FCC28602D
:102A10006960AA60EB602068286113239AB24FF4C2
:102A20007A7324492548FEF7DCFD4FF4FA70FDF770
:102A300021FE234B0B221A70FAE02249224800F0B3
:102A400026FB0346002B18D01A4A294B15461C4674
:102A50000FCC28606960AA60EB60206828611323AE
:102A60009AB24FF47A7313491948FEF7BAFD00F091
:102A700001F9134B0C221A70DAE00E4A1D4B154671
:102A80001C460FCC28606960AA60EB602388A2789E
:102A90002B821346AB7412239AB24FF47A73054912
:102AA0000B48FEF79EFD00F0E5F8054B0A221A7070
:102AB000BEE000BFD01C0020743A0008C41E0020F5
:102AC0009008002074390008A4080020803A00080B
:102AD0002C1C0020903A0008AF080020A03A000803
:102AE000C83A0008D83A0008F83A00081C3B000829
:102AF000303B0008443B00084F49504800F0C7FAFB
:102B00000346002B00F091804D4B1B6819464D4841
:102B100000F07CFA4C4B1B6819464A4800F09AFAC0
:102B20004A4B1B681946474800F094FA4548FDF7A0
:102B30004FFB03461A46464B1A60454B1B68002262
:102B40004449454800F062FA03469AB24FF47A735A
:102B500041494248FEF745FD4FF4FA70FDF78AFD02
:102B60003E21364800F085FA0346002B5DD03549FA
:102B7000394800F04BFA03469AB24FF47A7336495B
:102B80003648FEF72EFD4FF4FA70FDF773FD344B17
:102B90000D221A7049E03349284800F078FA0346BC
:102BA000002B1CD001224FF470412F48FEF750F843
:102BB000294A2E4B14461D460FCD20606160A2604D
:102BC000E3600F239AB24FF47A7323492348FEF748
:102BD00008FD00F04FF8224B0C221A7027E0244920
:102BE000164800F054FA0346002B20D000224FF480
:102BF00070411D48FEF72CF8174A1C4B14461D4621
:102C00000FCD20606160A260E3600F239AB24FF4A1
:102C10007A7311491148FEF7E4FC00F02BF8104BD1
:102C20000C221A7003E000BF02E000BF00E000BF0A
:102C300000BF0C37BD46F0BD583B0008A40800207B
:102C400008000020B40000200C000020100000202C
:102C50008C0800205C3B0008D01C0020C41E002013
:102C600090080020703B0008000C0240803B0008E8
:102C7000903B000880B483B000AF0023FB8006E0E7
:102C8000FB880A4A0021D154FB880133FB80FB8872
:102C900041F287329342F3D9054B00221A8000BFDC
:102CA0000C37BD465DF8047B704700BFA4080020C8
:102CB0008408002080B400AF00BFBD465DF8047BEF
:102CC0007047000080B483B000AF00237B60104ADF
:102CD0000F4B5B6C43F4804353640D4B5B6C03F40C
:102CE00080437B607B6800233B60094A084B1B6C78
:102CF00043F080531364064B1B6C03F080533B601E
:102D00003B6800BF0C37BD465DF8047B704700BFD1
:102D10000038024080B58CB000AF786007F11C032A
:102D200000221A605A609A60DA601A617B681B6838
:102D3000364A934234D10023BB61354A344B1B6C75
:102D400043F400331364324B1B6C03F40033BB6158
:102D5000BB6900237B612E4A2D4B1B6B43F00103A3
:102D600013632B4B1B6B03F001037B617B690C230B
:102D7000FB6102233B6201237B620323BB620723C7
:102D8000FB6207F11C0319462248FDF7C7FD00222C
:102D900000212620FDF769FD2620FDF782FD31E0A8
:102DA0007B681B681C4A93422CD100233B61184A64
:102DB000174B1B6C43F480231364154B1B6C03F4FB
:102DC00080233B613B690023FB60114A104B1B6B66
:102DD00043F0020313630E4B1B6B03F00203FB6013
:102DE000FB684FF44063FB6102233B6201237B627B
:102DF0000323BB620723FB6207F11C031946074844
:102E0000FDF78CFD00BF3037BD4680BD004400405B
:102E10000038024000000240004800400004024028
:102E200080B400AF00BFBD465DF8047B704780B43E
:102E300000AFFEE780B400AFFEE780B400AFFEE76E
:102E400080B400AFFEE780B400AF00BFBD465DF8C0
:102E5000047B704780B400AF00BFBD465DF8047BC3
:102E6000704780B400AF00BFBD465DF8047B70477B
:102E700080B500AFFDF7DEFB00BF80BD80B582B03E
:102E800000AF0E48FEF746FC0D4B5B68FB710D4A28
:102E9000FB795360FB79002B0BD00B4B1B88194639
:102EA0000A4AFB795354084B1B8801339AB2064BEC
:102EB0001A8000BF0837BD4680BD00BFC41E002079
:102EC000004400400048004084080020A40800207E
:102ED00080B584B000AF7860114B1B68002B02D125
:102EE0000F4B104A1A600E4B1B68FB600C4B1A68A4
:102EF0007B6813446A46934207D900F055F80246AE
:102F00000C2313604FF0FF3306E0054B1A687B6813
:102F10001344034A1360FB6818461037BD4680BD52
:102F200094080020081F002080B400AF084A084B16
:102F3000D3F8883043F47003C2F88830044B4FF064
:102F400000629A6000BFBD465DF8047B704700BF19
:102F500000ED00E0DFF834D0002103E00C4B5B58BB
:102F6000435004310B480C4B42189A42F6D30B4A9B
:102F700002E0002342F8043B094B9A42F9D3FFF7E1
:102F8000D3FF00F017F8FFF78BF97047000002201D
:102F9000FC3B000800000020980000209800002062
:102FA000081F0020FEE70000014B1868704700BFB3
:102FB0003400002070B50D4E0D4CA41BA41000254C
:102FC000A54209D10B4E0C4C00F076FCA41BA410BA
:102FD0000025A54205D170BD56F82530984701352A
:102FE000EEE756F8253098470135F2E7F43B000844
:102FF000F43B0008F43B0008F83B00080244034699
:10300000934200D1704703F8011BF9E70EB400B5F5
:103010009CB04FF402711DABADF8141002900690F5
:103020006FF000410A48049107914FF6FF7153F881
:10303000042BADF816100068019302A900F09EF869
:10304000029B00221A701CB05DF804EB03B07047BD
:103050003400002010B50246134601321C78002CC3
:10306000FAD1013B11F8012B03F8012F002AF9D105
:1030700010BDC9B2034610F8012B1AB19142F9D123
:103080001846704700290CBF184600207047F0B55D
:10309000037833B1034618465E1C1B7833B91846D3
:1030A000F0BD0B78002B18BF0020F0BD4D1E441E54
:1030B00015F8012F002AF3D014F8017F9742334608
:1030C000F6D0E8E72DE9F0478E689E4282460C462E
:1030D0009146984635D88A8912F4906F31D0256888
:1030E00009696F1A6569022305EB450595FBF3F540
:1030F00008F101033B449D4238BF1D46530531D5BD
:10310000294600F039FB064650B90C23CAF80030B6
:10311000A38943F04003A3814FF0FF30BDE8F0875F
:103120003A46216900F0B4FAA38923F4906343F08E
:103130008003A381266165613E44ED1B2660A56086
:103140004646464528BF464632464946206800F076
:10315000AAFAA3689B1BA36023681E442660002074
:10316000BDE8F0872A4600F065FB06460028E1D15D
:103170002169504600F0B2FAC7E700002DE9F04F90
:103180009DB0804603938B891C060D4616460FD5CD
:103190000B696BB9402100F0EFFA2860286128B96B
:1031A0000C23C8F800304FF0FF30C5E040236B61BE
:1031B0000023099320238DF8293030238DF82A30FD
:1031C0004FF0010B37463C4614F8013B002B3CD135
:1031D000B7EB060A0BD05346324629464046FFF766
:1031E00071FF013000F0A380099B534409933B78A1
:1031F000002B00F09C8000234FF0FF3204930793D4
:10320000059206938DF853301A9305222178504881
:10321000FCF7E6FF671C049BD8B9D90644BF2022FF
:103220008DF853201A0744BF2B228DF853202278A3
:103230002A2A16D0079A00210A20274601343B7813
:10324000303B092B51D9C9B111E0252BC0D02746FD
:10325000B9E73F4A801A0BFA00F0184304903C4645
:10326000D3E7039A111D12680391002A01DB07922C
:1032700004E0524243F00203079204933B782E2B62
:103280000ED17B782A2B07F1010132D1039B1A1D45
:103290001B680392002BB8BF4FF0FF330237059332
:1032A0002C4C397803222046FCF79AFF38B1402392
:1032B000001B03FA00F0049B0343049301373978A1
:1032C00025488DF8281006227E1CFCF789FF00286F
:1032D00035D0224BFBB9039B073323F00703083398
:1032E0000393099B4B4409936CE700FB02320121D5
:1032F000A3E70023059318460A240F4601313A78C4
:10330000303A092A03D9002BCAD00590C8E704FB3C
:1033100000200123F1E703AB00932A46104B04A9D8
:103320004046AFF30080B0F1FF3F8146D9D1AB8971
:103330005B063FF538AF09981DB0BDE8F08F03ABD1
:1033400000932A46064B04A9404600F081F8EAE7BC
:10335000B83B0008BE3B0008C23B0008000000006C
:10336000C53000082DE9F04791461F468A680B6971
:10337000DDF820809342B8BF1346C9F8003091F8B9
:10338000432006460C4612B10133C9F800302368C9
:10339000990642BFD9F800300233C9F800302568D9
:1033A00015F0060507D104F1190AE368D9F80020E1
:1033B0009B1A9D4229DB94F843302268003318BFE2
:1033C000012392062ED404F1430239463046C04709
:1033D000013021D02368E568D9F8002003F0060306
:1033E000042B08BFAD1AA36822690CBF25EAE57556
:1033F00000259342C4BF9B1AED184FF000091A3400
:103400004D451BD10020BDE8F087012352463946C7
:103410003046C047013003D14FF0FF30BDE8F087A0
:103420000135C2E7E1185A1C302081F843002244DC
:1034300094F8451082F843100233C4E70123224672
:1034400039463046C0470130E6D009F10109D7E7D7
:103450002DE9F04317460A7E85B06E2A9846064647
:103460000C460C9B01F1430E00F0BC801AD8632A75
:103470002ED00AD8002A00F0C880582A00F08A808E
:1034800004F1420584F842202AE0642A01D0692A26
:10349000F6D121681A6811F0800F23D0111D196030
:1034A000136827E0732A00F0B48008D86F2A2AD066
:1034B000702AE5D10A6842F020020A6003E0752A0A
:1034C00021D0782ADCD1782284F845206E4964E046
:1034D0001A6801F14205111D1960136884F8423021
:1034E0000123A3E011F0400F02F104011960D7D0CD
:1034F000B2F90030002B03DA2D225B4284F843201E
:1035000062490A2217E02068196810F0800F03D082
:10351000081D18600B6806E010F0400F01F1040070
:103520001860F7D00B8859496F2A14BF0A22082265
:10353000002084F843006568A560002DC0F29C80DF
:10354000206820F004002060002B3FD1002D40F0C7
:1035500095807546082A0BD12368DA0708D52369B8
:1035600062689A42DEBF302305F8013C05F1FF3561
:10357000AEEB05032361CDF800803B4603AA21464C
:103580003046FFF7EFFE013055D14FF0FF3005B068
:10359000BDE8F08381F845203C492268186812F0A4
:1035A000800F00F104051D6001D0036802E055069C
:1035B000FBD50388D00744BF42F0200222601BB92C
:1035C000226822F0200222601022B1E77546B3FB88
:1035D000F2F002FB1033CB5C05F8013D03460028F6
:1035E000F5D1B7E708681A68496910F0800F04D070
:1035F000101D18601368196007E010F0400F02F109
:10360000040018601368F6D0198000232361754602
:10361000B1E71A68111D1960156862680021284613
:10362000FCF7DEFD08B1401B606063682361002386
:1036300084F843309FE723692A4639463046C0471D
:103640000130A2D023689B0707D5002504F1190992
:10365000E368039A9B1A9D4205DBE068039B98424E
:10366000B8BF184693E701234A4639463046C0475B
:1036700001308AD00135EBE7002BA7D10B7884F815
:10368000423004F1420565E7DA3B0008C93B000817
:1036900010B5431E0A44914200D110BD11F8014BF0
:1036A00003F8014FF7E7884210B501EB020303D896
:1036B000421E99420CD110BD9842F9D28118D21AFB
:1036C000D34200D110BD13F8014D01F8014DF7E7C9
:1036D00011F8014B02F8014FEBE7000038B5054641
:1036E000002945D051F8043C0C1F002BB8BFE4184A
:1036F00000F0D6F81F4A1368104633B963601460AF
:103700002846BDE8384000F0CCB8A3420CD9216867
:103710006218934204BF1A685B68636004BF521862
:1037200022600460ECE713465A680AB1A242FAD953
:1037300019685818A0420BD12068014458188242D9
:103740001960DDD1106852685A6001441960D7E7EA
:1037500002D90C232B60D3E7206821188A4204BFCA
:1037600011685268626004BF091821605C60C7E795
:1037700038BD00BF9808002070B5CD1C25F00305AA
:1037800008350C2D38BF0C25002D064601DBA9425B
:1037900003D90C233360002070BD00F081F8234A68
:1037A0001468214691B9224C23681BB9304600F0B9
:1037B00067F820602946304600F062F8431C26D1A5
:1037C0000C233360304600F06CF8E4E70B685B1BB9
:1037D0001AD40B2B0FD90B60CD50CC18304600F00B
:1037E00060F804F10B00231D20F00700C31A1BD062
:1037F0005A42E25070BD8C420DBF63684B686360F3
:10380000136018BF0C46E9E70C464968CAE7C41CB8
:1038100024F00304A04205D0211A304600F030F80D
:103820000130CDD02560D9E770BD00BF98080020D9
:103830009C080020F8B5074614460E4621B91146EB
:10384000BDE8F840FFF798BF22B9FFF747FF2546CC
:103850002846F8BD00F026F884420FD921463846A4
:10386000FFF78AFF05460028F2D031462246FFF7CF
:103870000FFF31463846FFF731FFE9E73546E7E706
:1038800038B5064C0023054608462360FFF720FBA9
:10389000431C02D1236803B12B6038BD041F0020F4
:1038A0007047704751F8040C0028A0F10400BCBF19
:1038B0000B58C01870470000F8B500BFF8BC08BC32
:1038C0009E467047F8B500BFF8BC08BC9E467047DE
:1038D0003C686561643E2048656C6C6F20576F7270
:1038E0006C64203C2F686561643E00003C62723E5F
:1038F0003C6120687265663D22203F70696E3D6FB5
:103900006E223E3C627574746F6E20747970653DF2
:1039100027627574746F6E273E4F4E3C2F6275742C
:10392000746F6E3E3C2F613E000000003C62723EB0
:103930003C6120687265663D22203F70696E3D6F74
:103940006666223E3C627574746F6E207479706591
:103950003D27627574746F6E273E4F46463C2F625A
:103960007574746F6E3E3C2F613E000041540D0A29
:10397000000000004F4B00004D6F64756C652045E2
:10398000726973696C6469210D0A00004D6F64757A
:103990006C652045726973696C656D656469210D9C
:1039A0000A00000041542B43574D4F44453F0D0A38
:1039B000000000002B43574D4F44453A31000000B2
:1039C0004D6F6420617961726920646F677275213F
:1039D0000D0A00004D6F6420617961726920796180
:1039E0006E6C6973210D0A0041542B43574D4F44AF
:1039F000453D310D0A00000041542B43574A4150C8
:103A00003D222573222C222573220D0A000000007E
:103A10004261676C616E746920796170696C646978
:103A2000210D0A004261676C616E746920796170D2
:103A3000696C616D616469212042656B6C656E69BA
:103A4000796F7221210D0A004261676C616E7469A1
:103A50002062617361726973697A2E2054656B729A
:103A600061722064656E656E69796F722121210D26
:103A70000A00000041542B43494653520D0A0000EE
:103A8000495020416C696E64692121210D0A0000B2
:103A9000436968617A204950203D200D0A000000EA
:103AA000495020416C696E616D6164692121205427
:103AB000656B7261722064656E656E69796F7221E3
:103AC00021210D0A0000000041542B4349504D555F
:103AD000583D310D0A000000436F6B6C7520626128
:103AE000676C616E746920646F6772756C616E6477
:103AF00069212121210D0A00436F6B6C75206261E1
:103B0000676C616E746920646F6772756C616E6159
:103B10006D616469212121210D0A000041542B436C
:103B200049505345525645523D312C38300D0A000C
:103B3000536572766572206261736C6164692121DC
:103B4000210D0A00536572766572206261736C61A3
:103B50006D6164690D0A00004745540041542B43D0
:103B6000495053454E443D25642C25640D0A000000
:103B70003A474554202F3F70696E3D6F6E0000003C
:103B800041542B434950434C4F53453D300D0A009F
:103B90003A474554202F3F70696E3D6F66660000BE
:103BA00000000000000000000102030406070809ED
:103BB0000000000001020304232D302B2000686C5C
:103BC0004C00656667454647003031323334353640
:103BD0003738394142434445460030313233343579
:0C3BE000363738396162636465660000A6
:083BEC00C4C6FF7F01000000C8
:043BF400B50100080F
:043BF800910100082F
:103BFC001000000001000000D0380008EC3800086C
:103C0C002C390008416972546965732D32360000F5
:103C1C004D4653692E32373136313832330000007D
:103C2C000024F40038000020000000000000000018
:103C3C000000000000000000000000000000000078
:103C4C000000000000000000000000000000000068
:103C5C000000000000000000000000000000000058
:103C6C000000000000000000000000000000000048
:103C7C000000000000000000000000000000000038
:083C8C00000000000000000030
:0400000508002F556B
:00000001FF
