:020000040800F2
:100000000000022079190008DD180008DF18000838
:10001000E1180008E3180008E518000800000000D7
:10002000000000000000000000000000E7180008C9
:10003000E918000800000000EB180008ED1800089F
:10004000C9190008C9190008C9190008C919000808
:10005000C9190008C9190008C9190008C9190008F8
:10006000C9190008C9190008C9190008C9190008E8
:10007000C9190008C9190008C9190008C9190008D8
:10008000C9190008C9190008C9190008C9190008C8
:10009000C9190008C9190008C9190008C9190008B8
:1000A000C9190008C9190008C9190008C9190008A8
:1000B000C9190008C9190008C9190008C919000898
:1000C000C9190008C9190008C9190008C919000888
:1000D000C9190008C9190008F1180008C919000851
:1000E000C9190008C9190008C9190008C919000868
:1000F000C9190008C9190008C9190008C919000858
:10010000C9190008C9190008C9190008C919000847
:10011000C9190008C9190008C9190008C919000837
:10012000C9190008C9190008C9190008C919000827
:10013000C9190008C9190008C9190008C919000817
:10014000C9190008C9190008C9190008C919000807
:10015000C9190008C9190008C9190008C9190008F7
:10016000C9190008C9190008C9190008C9190008E7
:10017000C9190008C9190008C919000800000000C1
:08018000C9190008C9190008A3
:1001900010B5054C237833B9044B13B10448AFF3C1
:1001A00000800123237010BD90000020000000009B
:1001B000EC22000808B5034B1BB103490348AFF319
:1001C000008008BD0000000094000020EC22000820
:1001D000034613F8012B002AFBD1181A0138704787
:1001E00001F0FF01102A2BDB10F0070F08D010F8E8
:1001F000013B013A8B422DD010F0070F42B3F6D1EC
:10020000F0B441EA012141EA014122F007047FF004
:1002100000070023F0E80256083C85EA010586EA5B
:10022000010685FA47F5A3FA87F586FA47F6A5FA97
:1002300087F68EB9EED1F0BC01F0FF0102F00702A3
:1002400032B110F8013B013A83EA010313B1F8D14E
:100250000020704701387047002D06BF354603382F
:10026000073815F0010F07D1013015F4807F02BF68
:10027000013015F4C03F0130F0BC0138704700BFB9
:1002800053B94AB9002908BF00281CBF4FF0FF31FD
:100290004FF0FF3000F07AB9ADF1080C6DE904CEF3
:1002A00000F006F8DDF804E0DDE9022304B0704751
:1002B0002DE9F0478C460D460446089E002B51D18F
:1002C0008A4217466DD9B2FA82FEBEF1000F0BD0FA
:1002D000CEF1200C01FA0EF520FA0CFC02FA0EF712
:1002E0004CEA050C00FA0EF44FEA174A250CBCFB49
:1002F000FAF81FFA87F90AFB18CC45EA0C4508FB07
:1003000009F3AB420AD9ED1908F1FF3280F02381DD
:10031000AB4240F22081A8F102083D44ED1AA4B29C
:10032000B5FBFAF00AFB105544EA054400FB09F955
:10033000A14509D9E41900F1FF3380F00A81A145F4
:1003400040F2078102383C44A4EB090440EA08402B
:100350000021002E61D024FA0EF400233460736073
:10036000BDE8F0878B4207D9002E54D0002186E8E3
:1003700021000846BDE8F087B3FA83F1002940F078
:100380008E80AB4202D3824200F2FA80841A65EB7F
:1003900003050120AC46002E3FD086E81010BDE8D2
:1003A000F08712B90127B7FBF2F7B7FA87FEBEF163
:1003B000000F34D1EB1B3A0C1FFA87FC0121B3FB71
:1003C000F2F8250C02FB183345EA03450CFB08F351
:1003D000AB4207D9ED1908F1FF3002D2AB4200F26F
:1003E000D1808046ED1AA3B2B5FBF2F002FB1055A6
:1003F00043EA05440CFB00FCA44507D9E41900F1CD
:10040000FF3302D2A44500F2B8801846A4EB0C04D6
:1004100040EA08409DE731463046BDE8F087CEF11E
:10042000200405FA0EF307FA0EF720FA04F83A0C46
:1004300025FA04F448EA0308B4FBF2F14FEA184540
:1004400002FB11441FFA87FC45EA044501FB0CF34B
:10045000AB4200FA0EF409D9ED1901F1FF3080F03A
:100460008A80AB4240F2878002393D44EB1A1FFA82
:1004700088F5B3FBF2F002FB103345EA034500FBBD
:100480000CF3AB4207D9ED1900F1FF386FD2AB4244
:100490006DD902383D44EB1A40EA01418FE7C1F1C2
:1004A000200722FA07F88B4005FA01F448EA030313
:1004B00020FA07FE4FEA134CFD404EEA040EB5FB4E
:1004C000FCF94FEA1E440CFB19551FFA83F844EA65
:1004D000054509FB08F4AC4202FA01F200FA01FA00
:1004E00008D9ED1809F1FF3043D2AC4241D9A9F146
:1004F00002091D442D1B1FFA8EFEB5FBFCF00CFB00
:1005000010554EEA054400FB08F8A04507D9E41849
:1005100000F1FF3529D2A04527D902381C4440EA12
:100520000940A4EB0804A0FB02894C45C6464D4691
:1005300015D312D056B1BAEB0E0364EB050404FADE
:1005400007F7CB401F43CC40376074600021BDE803
:10055000F0871846F8E69046E0E6C245EAD2B8EBE6
:10056000020E69EB03050138E4E72846D7E7404669
:1005700091E78146BEE7014678E702383C4445E70B
:10058000084608E7A8F102083D442BE7704700BF82
:1005900038B50E4A0E4B054618784FF47A73B3FB04
:1005A000F0F31068B0FBF3F000F0AAF8044658B975
:1005B0000F2D09D8024629464FF0FF3000F05EF8B3
:1005C000044B20461D6038BD012038BD28000020A6
:1005D000000000200400002008B50B4B1A6842F40C
:1005E00000721A601A6842F480621A601A6842F453
:1005F00080721A60032000F02FF80020FFF7C8FF78
:1006000001F0E2F8002008BD003C0240034A044B20
:1006100011681B780B441360704700BF90080020DE
:1006200000000020014B1868704700BF90080020B0
:1006300038B50446FFF7F6FF631C1CBF054B1B785B
:10064000054618BFE418FFF7EDFF401B8442FAD8B7
:1006500038BD00BF00000020074AD36823F4E063E0
:100660001B041B0C43F0BF63000243F4003300F48F
:10067000E0600343D360704700ED00E0174B30B5F6
:10068000DC68C4F30224C4F10703251D042B28BF32
:100690000423062D4FF0010505FA03F303F1FF33A0
:1006A0008CBF033C00241940A14005FA04F4013C2E
:1006B0002240002842EA01024FEA0212ADBF00F1D7
:1006C000604000F00F00064B00F56140B5BFD2B2AC
:1006D000D2B21A5480F8002330BD00BF00ED00E014
:1006E00014ED00E0002808DB4209012300F01F00A0
:1006F00003FA00F0014B43F82200704700E100E0EC
:100700000138B0F1807F0AD2064B074A5860F021C9
:1007100082F823100020072298601A607047012099
:10072000704700BF10E000E000ED00E090F83530C9
:10073000022B03D080234365012070470268052304
:1007400080F83530136823F00103136000207047F0
:100750002DE9F04F85B00B68DFF8AC81684ADFF80F
:10076000AC91019300230124019D9C402540AC42A3
:1007700040F0B0804C6824F0100C0CF1FF36012ED4
:100780004FEA430E12D88768032606FA0EF627EAC8
:100790000607CE6806FA0EF63E4386604768C4F345
:1007A000001627EA05079E403E4346600326C768B9
:1007B00006FA0EF6F64307EA060A8F6807FA0EF7FE
:1007C00047EA0A07BCF1020FC76016D14FEAD30A05
:1007D00000EB8A0A03F0070BDAF820704FEA8B0B64
:1007E0004FF00F0C0CFA0BFC27EA0C0C0F6907FA00
:1007F0000BF747EA0C07CAF8207007683E4004F080
:10080000030707FA0EFE4EEA06060660E60061D50B
:100810004FF0000BCDF80CB0D8F84470394E47F4C7
:100820008047C8F84470D8F8447007F480470397AD
:10083000039F23F0030707F1804707F59C3703F078
:10084000030CD7F808A04FEA8C0C4FF00F0E0EFAED
:100850000CFEB0422AEA0E0E43D006F58066B04286
:1008600041D006F58066B0423FD006F58066B042C2
:100870003DD006F58066B0423BD048453BD006F5FA
:100880000066B04239D006F58066B04214BF082633
:10089000072606FA0CF646EA0E06BE601668EF4317
:1008A00014F4803F0CBF3E402E431660566814F48B
:1008B000003F0CBF3E402E435660966814F4801FE4
:1008C0000CBF3E402E439660D668A40254BF3E4003
:1008D0002E43D6600133102B7FF445AF05B0BDE841
:1008E000F08F5E46D5E70126D3E70226D1E703263F
:1008F000CFE70426CDE70526CBE70626C9E700BFEC
:10090000003C014000000240003802400014024058
:100910002DE9F341044608B901203FE00368DD07F3
:1009200010D4236898075AD423681A0700F19C80D2
:1009300023685B0700F1BA80A069002840F01B81A2
:1009400000202BE0A44B9A6802F00C02042A07D086
:100950009A6802F00C02082A0AD15B68590207D58E
:100960009D4B1B689A03DCD56368002BD9D1D3E774
:100970006368994DB3F5803F13D12B6843F48033FE
:100980002B60FFF74FFE944D06462B689B03C8D49F
:10099000FFF748FE801B6428F7D9032002B0BDE8AA
:1009A000F081B3F5A02F04D12B6843F480232B6092
:1009B000E3E72A6822F480322A602A6822F480223F
:1009C0002A60002BDDD1FFF72DFE06462B689F0322
:1009D000A7D5FFF727FE801B6428F7D9DDE77E4BFC
:1009E0009A6812F00C0F07D09A6802F00C02082ADD
:1009F00011D15B685E020ED4774B1A68950702D559
:100A0000E268012A88D11A68216922F0F80242EAD4
:100A1000C1021A6088E7E268704BB2B101221A6025
:100A2000FFF700FE6C4D06462B68980707D52B682C
:100A3000226923F0F80343EAC2032B6074E7FFF74F
:100A4000F1FD801B0228EFD9A7E71A60FFF7EAFD46
:100A5000614D06462B6899077FF566AFFFF7E2FD0B
:100A6000801B0228F6D998E762695D4B7AB10122B2
:100A70001A60FFF7D7FD584D06466B6F9F073FF58D
:100A800057AFFFF7CFFD801B0228F6D985E71A6024
:100A9000FFF7C8FD504D06466B6F98077FF548AFCE
:100AA000FFF7C0FD801B0228F6D976E74A4B1A6C87
:100AB00012F0805228D101921A6C42F080521A64CE
:100AC0001B6C03F080530193019B0126454D2B685D
:100AD000D9051BD5A368404D012B27D12B6F43F0BF
:100AE00001032B67FFF79EFD3B4D074641F2883817
:100AF0002B6F9B0739D5002E3FF41EAF364A136C7F
:100B000023F08053136417E70026DFE72B6843F4D4
:100B100080732B60FFF786FD07462B68DA05D9D472
:100B2000FFF780FDC01B0228F7D936E7052B04D15B
:100B30002B6F43F004032B67D0E72A6F22F00102EA
:100B40002A672A6F22F004022A67002BCAD1FFF716
:100B500069FD41F2883807462B6F9807CBD5FFF720
:100B600061FDC01B4045F7D917E7FFF75BFDC01BD0
:100B70004045BDD911E7184DAB6803F00C03082BB5
:100B800047D0194E00230228336035D1FFF74AFDC4
:100B900007462B68990129D4226AE3691343626AE4
:100BA00043EA8213E26A43EA0263A26A0A4C5208E9
:100BB000013A43EA02436B6001233360FFF732FDE1
:100BC000054623689A013FF5BBAEFFF72BFD401B9E
:100BD0000228F6D9E1E600BF003802400000474293
:100BE000800E47420070004060004742FFF71AFD48
:100BF000C01B0228CDD9D0E6FFF714FD04462B68B0
:100C00009B017FF59DAEFFF70DFD001B0228F6D975
:100C1000C3E601283FF4C2AEA868E36900F480028D
:100C20009A427FF479AE226A00F03F0393427FF448
:100C300073AE626A47F6C073034093427FF46CAEB2
:100C4000A26A00F4403393427FF466AEE36A00F098
:100C50007060C01A18BF0120A0E600BF134908B594
:100C60008B6803F00C03042B03D0082B03D010482F
:100C700008BD104808BD4A684B68496813F48003F2
:100C800014BF0C480A48C1F3881118BF002302F0B2
:100C90003F02A1FB0001FFF7F3FA044B5B68C3F3CB
:100CA000014301335B00B0FBF3F008BD00380240A4
:100CB0000024F40000127A002DE9F0410D460446AC
:100CC00010B90120BDE8F081444B1A6802F00F0210
:100CD0008A4229D321688F072ED4C80741D43F4BBD
:100CE0001A6802F00F02954267D3226851076DD44B
:100CF000130707D53A4A2169936823F4604343EA0E
:100D0000C1039360FFF7AAFF354B364A9B68C3F3D4
:100D10000313D35CD840344B1860344B1868FFF78A
:100D200037FC0020BDE8F081CAB21A701B6803F0DE
:100D30000F039942C5D1CDE7294B11F0040F1EBF17
:100D40009A6842F4E0529A600E0742BF9A6842F4F1
:100D500060429A609A68A06822F0F00202439A60AA
:100D6000BBE762681E4B012A1DD11B6813F4003FCC
:100D7000A7D01B4EB36823F003031343B360FFF700
:100D800051FC41F288380746B368626803F00C03EF
:100D9000B3EB820FA3D0FFF745FCC01B4045F3D94E
:100DA0000320BDE8F081911E01291B6802D813F0D1
:100DB000007FDDE713F0020FDAE7EAB21A701B6872
:100DC00003F00F039D427FF47CAF8EE70449E06897
:100DD0008B6823F4E05303438B6089E7003C0240B7
:100DE000003802407F250008280000200400002071
:100DF000044B054A9B68C3F38223D35C034A106803
:100E0000D8407047003802408F2500082800002095
:100E1000044B054A9B68C3F34233D35C034A106812
:100E2000D8407047003802408F2500082800002075
:100E30000368DA6822F49072DA605A6922F00102DB
:100E40005A61202380F83A307047000038B50368B3
:100E5000C1681A69044622F440520A431A6125699E
:100E6000A268D968C0692A43656921F416412A43FA
:100E700021F00C0102430A43DA605A69A16922F4A5
:100E800040720A43B0F5004F5A61254A29D1934276
:100E900003D002F58062934220D1FFF7B9FF626868
:100EA000256892184FF000034FF019015B41A0FB39
:100EB0000101FFF7E5F96421B0FBF1F401FB140334
:100EC000DB003233B3FBF1F303F007025B0002EB0C
:100ED000041203F4F8731344AB6038BDFFF788FFC6
:100EE000DDE7934202D00F4A934216D1FFF790FFFD
:100EF0006368256819219A00A0FB01019B0FFFF789
:100F0000BFF96422B0FBF2F102FB11031B01323383
:100F1000B3FBF2F303EB0113DEE7FFF769FFE7E74B
:100F20000010014000140140F8B504460E46174673
:100F30001D4621680B6836EA030301D10020F8BD85
:100F40006B1CF7D095B92368DA6822F4D072DA60A6
:100F50005A6922F001025A61202384F8393084F85A
:100F60003A30002384F838300320F8BDFFF75AFBED
:100F7000C01B8542DDD2E6E710B5044640B390F8C9
:100F8000393003F0FF021BB980F8382000F038FC3C
:100F90002268242384F83930D36823F40053D360C3
:100FA0002046FFF753FF23681A6922F490421A6122
:100FB0005A6922F02A025A61DA6842F40052DA6071
:100FC00000202023E06384F8393084F83A3010BDE3
:100FD000012010BD2DE9F8431F4690F83930202B31
:100FE00004460D46904651D100294CD0002A4AD0E3
:100FF00090F83830012B49D0012380F838304FF079
:1010000000092123C0F83C9080F83930FFF70AFB33
:10101000A4F824800646A4F8268084F83890E38C4F
:101020009BB25BB93B46324640212046FFF77CFF2E
:10103000A0B9202384F83930BDE8F883E38C013B64
:101040009BB2E384A368B3F5805F32463B464FF022
:10105000800120460ED1FFF767FF10B10320BDE8E5
:10106000F8832B882268C3F308035360236943B9CC
:101070000235D4E7FFF758FF0028EFD123682A781C
:101080005A600135CBE70120BDE8F8830220BDE8B6
:10109000F8837047704790F83A30222B10B536D15C
:1010A000836801690268B3F5805F836A23D152685F
:1010B000E9B9C2F3080223F8022B8362C48D013C14
:1010C000A4B2C4858CB90368DA6822F02002DA6021
:1010D000DA6822F48072DA605A6922F001025A61F9
:1010E000202380F83A30FFF7D5FF002010BDD2B2A0
:1010F00023F8012BE1E721B9591C526881621A706B
:10110000DCE75268591C816202F07F02F7E7022097
:1011100010BD704703681A68D96870B51607044691
:101120005D6907D196065CD58D065AD5BDE870403D
:10113000FFF7B1BF15F0010502D111F4907F50D037
:10114000D00705D5CB0542BFE36B43F00103E36352
:10115000560704D51DB1E36B43F00203E363900728
:1011600004D51DB1E36B43F00403E363130706D515
:101170008E0600D41DB1E36B43F00803E363E36B19
:10118000002B66D0950604D5880602D52046FFF7C9
:1011900082FF23685D69E26B1107204602D415F0D7
:1011A00040051AD0FFF744FE23685A69520610D54D
:1011B0005A69606B22F040025A6150B1254B0365B9
:1011C000FFF7B4FA002844D0606BBDE87040036DAF
:1011D00018472046FFF79DFF70BDFFF79AFFE563B4
:1011E00070BD160627D50D0625D594F83920212A7D
:1011F0002FD1A268B2F5805F226A17D11188C1F39E
:1012000008015960216979B902322262E28C013AFF
:1012100092B2E284EAB9DA6822F08002DA60DA682F
:1012200042F04002DA6070BD0132EEE7511C2162EB
:1012300012785A60EAE750060BD54A0609D5DA68F3
:1012400022F04002DA60202384F839302046FFF78C
:1012500020FF70BD5912000808B5806B0023C385BC
:10126000C384FFF756FF08BD002305491A465A54A8
:101270000133B3F5FA7FFAD1024B1A80704700BFF1
:1012800094080020AE00002030B595B03022002137
:1012900008A800F0C5FB0021142203A800F0C0FB41
:1012A00000241C4B01941A6C42F080521A641B6C8F
:1012B00003F080530193019B174B02941A6842F488
:1012C00080421A601B680F9403F480430293029BD0
:1012D00001230B9310230C9308231093A8230225BA
:1012E000119308A80423139308950E951295FFF700
:1012F0000FFB0F2303934FF4A053069305214FF4E4
:10130000805303A8049505940793FFF7D5FC15B007
:1013100030BD00BF00380240007000408FB500248F
:10132000FFF75AF9FFF7B0FFAC4B01941A6BAC4DC5
:10133000DFF81C8342F080021A631A6B02F080020D
:101340000192019A02941A6B42F001021A631A6B1D
:1013500002F001020292029A03941A6B42F0020216
:101360001A631B6BAC6003F002030393039B9D4B5A
:10137000EC604FF4E1370C26284685E888002C61A4
:10138000AC61EC616E61FFF7F7FD9748974B8460A5
:1013900080E88800C46004618461C4614661FFF72D
:1013A000EBFD2A68924FD36843F02003D3603C469C
:1013B0003B780C2BFDD8DFE813F00D001F00440034
:1013C00051007D009000CC00DD004D015E017A01EE
:1013D0008B01A7018749884800F06BFB4FF47A73B3
:1013E000042285497E48FFF7F5FD012323704FF461
:1013F000FA60FFF71DF9DBE78049814800F061FBE7
:10140000054678B1FFF730FF7E497B4800F051FB7D
:101410004FF47A73122278497348FFF7DBFD0223F9
:101420002370C5E7FFF720FF7749734800F041FBC1
:1014300071496D484FF47A731522FFF7CBFD257083
:10144000B6E772496C4800F034FB4FF47A730C2213
:1014500069496348FFF7BEFD0323C7E76C49684845
:1014600000F02FFB054670B1FFF7FEFE69496248A8
:1014700000F01FFB4FF47A7312225F495A48FFF7BE
:10148000A9FD0423CCE7FFF7EFFE63495A4800F0BB
:1014900010FB4FF47A73132257495348FFF79AFD14
:1014A0005E49554800F005FB4FF47A730D2252490E
:1014B0004B48C2E75A4B5B4A5B494F4800F0B8FAC9
:1014C0004FF47A7382B24C494548FFF783FD4FF4DD
:1014D000FA60FFF7ADF80523A2E74849484800F055
:1014E000F0FA064670B1FFF7BFFE5049424800F0DF
:1014F000E0FA4FF47A7313223F493B48FFF76AFD45
:1015000006238DE7FFF7B0FE494D4A493A4800F0FF
:10151000D0FA4FF47A73232237493348FFF75AFD44
:101520002B684FF4FA6001332B60FFF781F82B68CA
:10153000052B7FF43DAF40492F4800F0BAFA4FF435
:101540007A7329222C492848FFF744FD26702E6023
:101550002EE73A49284800F0ACFA4FF47A730A2291
:1015600025491F48FFF736FD4FF4FA60FFF760F892
:10157000072355E72149224800F0A3FA20B3304958
:101580001D4800F096FA4FF47A730E221A49164855
:10159000FFF720FD2B49184800F08BFA4FF47A73BF
:1015A0000D2215491048FFF715FD2749124800F094
:1015B0003FFA4FF47A7382B20F490B48FFF70AFDE6
:1015C000FFF752FE08232BE7FFF74EFE1F490A489C
:1015D00000F06FFA4FF47A7324228DE7003802404E
:1015E000200D002000440040880A002000480040F0
:1015F000AC000020042300082C0B00200923000865
:10160000940800200C2300081F230008352300083D
:10161000422300084C2300085F23000873230008BE
:101620001C0000200C0000208123000896230008E5
:10163000B0000020AA230008CE230008F8230008E9
:1016400003240008122400089F080020202400081A
:10165000D12400084C494D4800F02BFA4FF47A731E
:101660000D224A494A48FFF7B5FC4FF4FA60FEF7ED
:10167000DFFF0923D4E64749474800F022FA70B15A
:101680004649424800F015FA4FF47A731F223F4949
:101690004348FFF79FFCFFF7E7FD0A23C0E64149F7
:1016A0003A4800F006FA4FF47A73222284E73E4962
:1016B000364800F0FEF94FF47A7313223349344868
:1016C000FFF788FC4FF4FA60FEF7B2FF0B23A7E6A2
:1016D0003049314800F0F5F970B134492B4800F039
:1016E000E8F94FF47A73132228492D48FFF772FC6A
:1016F000FFF7BAFD0C2393E62D49244800F0D9F9F1
:101700004FF47A731222C2E74146234800F0D9F918
:1017100000283FF44DAE274B2748196800F088F9A0
:10172000264B2548196800F0A7F9254B224819686F
:1017300000F0A2F92048FEF74BFD002203462149A4
:10174000124800F075F9114982B24FF47A731048CB
:10175000FFF740FC4FF4FA60FEF76AFF3E210E48A7
:1017600000F099F900283FF423AE1349074800F030
:101770005FF94FF47A7382B204490548FFF72AFCF7
:1017800041F2707035E600BF452400082C0B0020A4
:10179000200D00200923000894080020532400088D
:1017A000880A00207324000896240008AA24000850
:1017B000BE24000808000020B4000020180000200B
:1017C00014000020D524000882B00C4B00210091A9
:1017D0005A6C42F480425A645A6C02F4804200927D
:1017E000009A01911A6C42F080521A641B6C03F04B
:1017F00080530193019B02B0704700BF0038024044
:1018000010B514228AB0044600210DEB020000F04E
:1018100007F923682C4A93422DD12C4B2C480024E5
:1018200001941A6C42F400321A641A6C02F4003209
:101830000192019A02941A6B42F001021A631B6B27
:1018400003F001030293029B0C23059302230693EA
:10185000012307930323089305A907230993FEF7A0
:1018600077FF262022462146FEF708FF2620FEF7B6
:1018700039FF0AB010BD174A9342FAD1134B1648EC
:10188000002103911A6C42F480221A641A6C02F44B
:1018900080220392039A04911A6B42F002021A63A7
:1018A0001B6B03F002030493049B4FF44063059306
:1018B00002230693012307930323089305A9072313
:1018C0000993FEF745FFD4E700440040003802408A
:1018D0000000024000480040000402407047FEE75C
:1018E000FEE7FEE7FEE7704770477047FEF78EBEE3
:1018F00008B50848FFF70EFC074B084A5B68DBB2E7
:1019000053602BB1064907480A88835401320A8084
:1019100008BD00BF200D00200044004000480040EA
:10192000AE0000209408002008B50A4B1968024652
:1019300009B9094919601868694602448A4206D9FA
:1019400000F044F80C2303604FF0FF3008BD1A602C
:1019500008BD00BF84080020640D0020054BD3F8AB
:10196000882042F47002C3F888204FF000629A6029
:10197000704700BF00ED00E0DFF834D0002103E045
:101980000C4B5B58435004310B480C4B42189A42A5
:10199000F6D30B4A02E0002342F8043B094B9A427B
:1019A000F9D3FFF7DBFF00F017F8FFF7B7FC70473C
:1019B00000000220DC25000800000020900000202C
:1019C00090000020640D0020FEE70000014B186825
:1019D000704700BF2C00002070B50D4E0D4CA41BAD
:1019E000A4100025A54209D10B4E0C4C00F07EFC42
:1019F000A41BA4100025A54205D170BD56F82530C2
:101A000098470135EEE756F8253098470135F2E75B
:101A1000D4250008D4250008D4250008D8250008BE
:101A200002440346934200D1704703F8011BF9E7D3
:101A30000EB400B59CB04FF402711DABADF814109C
:101A4000029006906FF000410A48049107914FF60A
:101A5000FF7153F8042BADF816100068019302A92A
:101A600000F0A6F8029B00221A701CB05DF804EB8F
:101A700003B070472C00002010B502461346013217
:101A80001C78002CFAD1013B11F8012B03F8012F2F
:101A9000002AF9D110BDC9B2034610F8012B1AB1C2
:101AA0009142F9D11846704700290CBF1846002012
:101AB0007047034611F8012B03F8012B002AF9D1D6
:101AC0007047F0B5037833B1034618465E1C1B78A7
:101AD00033B91846F0BD0B78002B18BF0020F0BDBD
:101AE0004D1E441E15F8012F002AF3D014F8017F73
:101AF00097423346F6D0E8E72DE9F0478E689E42DC
:101B000082460C469146984635D88A8912F4906FE1
:101B100031D0256809696F1A6569022305EB45050F
:101B200095FBF3F508F101033B449D4238BF1D4688
:101B3000530531D5294600F039FB064650B90C2330
:101B4000CAF80030A38943F04003A3814FF0FF306F
:101B5000BDE8F0873A46216900F0B4FAA38923F47E
:101B6000906343F08003A381266165613E44ED1BD1
:101B70002660A5604646464528BF46463246494649
:101B8000206800F0AAFAA3689B1BA36023681E4488
:101B900026600020BDE8F0872A4600F065FB064677
:101BA0000028E1D12169504600F0B2FAC7E70000F1
:101BB0002DE9F04F9DB0804603938B891C060D469E
:101BC00016460FD50B696BB9402100F0EFFA28607B
:101BD000286128B90C23C8F800304FF0FF30C5E069
:101BE00040236B610023099320238DF82930302393
:101BF0008DF82A304FF0010B37463C4614F8013B74
:101C0000002B3CD1B7EB060A0BD05346324629468F
:101C10004046FFF771FF013000F0A380099B534459
:101C200009933B78002B00F09C8000234FF0FF329B
:101C300004930793059206938DF853301A93052267
:101C400021785048FEF7CCFA671C049BD8B9D90616
:101C500044BF20228DF853201A0744BF2B228DF851
:101C6000532022782A2A16D0079A00210A202746D4
:101C700001343B78303B092B51D9C9B111E0252BF8
:101C8000C0D02746B9E73F4A801A0BFA00F0184344
:101C900004903C46D3E7039A111D12680391002A71
:101CA00001DB079204E0524243F0020307920493DF
:101CB0003B782E2B0ED17B782A2B07F1010132D1F4
:101CC000039B1A1D1B680392002BB8BF4FF0FF3314
:101CD000023705932C4C397803222046FEF780FA10
:101CE00038B14023001B03FA00F0049B0343049324
:101CF0000137397825488DF8281006227E1CFEF71A
:101D00006FFA002835D0224BFBB9039B073323F031
:101D1000070308330393099B4B4409936CE700FBCB
:101D200002320121A3E70023059318460A240F4637
:101D300001313A78303A092A03D9002BCAD00590EC
:101D4000C8E704FB00200123F1E703AB00932A4618
:101D5000104B04A94046AFF30080B0F1FF3F81462D
:101D6000D9D1AB895B063FF538AF09981DB0BDE806
:101D7000F08F03AB00932A46064B04A9404600F0BF
:101D800081F8EAE7972500089D250008A1250008AD
:101D900000000000F91A00082DE9F04791461F469F
:101DA0008A680B69DDF820809342B8BF1346C9F8F2
:101DB000003091F8432006460C4612B10133C9F8B1
:101DC00000302368990642BFD9F800300233C9F8C1
:101DD0000030256815F0060507D104F1190AE368FB
:101DE000D9F800209B1A9D4229DB94F843302268E1
:101DF000003318BF012392062ED404F14302394662
:101E00003046C047013021D02368E568D9F800206A
:101E100003F00603042B08BFAD1AA36822690CBFA8
:101E200025EAE57500259342C4BF9B1AED184FF0D3
:101E300000091A344D451BD10020BDE8F08701236D
:101E4000524639463046C047013003D14FF0FF308B
:101E5000BDE8F0870135C2E7E1185A1C302081F84F
:101E60004300224494F8451082F843100233C4E73B
:101E70000123224639463046C0470130E6D009F1F9
:101E80000109D7E72DE9F04317460A7E85B06E2A8F
:101E9000984606460C460C9B01F1430E00F0BC80B0
:101EA0001AD8632A2ED00AD8002A00F0C880582AEF
:101EB00000F08A8004F1420584F842202AE0642A76
:101EC00001D0692AF6D121681A6811F0800F23D059
:101ED000111D1960136827E0732A00F0B48008D838
:101EE0006F2A2AD0702AE5D10A6842F020020A60DF
:101EF00003E0752A21D0782ADCD1782284F84520A5
:101F00006E4964E01A6801F14205111D19601368F9
:101F100084F842300123A3E011F0400F02F10401E4
:101F20001960D7D0B2F90030002B03DA2D225B42C2
:101F300084F8432062490A2217E02068196810F0EB
:101F4000800F03D0081D18600B6806E010F0400FEA
:101F500001F104001860F7D00B8859496F2A14BFAB
:101F60000A220822002084F843006568A560002D3D
:101F7000C0F29C80206820F004002060002B3FD13C
:101F8000002D40F095807546082A0BD12368DA07AA
:101F900008D5236962689A42DEBF302305F8013C08
:101FA00005F1FF35AEEB05032361CDF800803B461C
:101FB00003AA21463046FFF7EFFE013055D14FF01E
:101FC000FF3005B0BDE8F08381F845203C49226828
:101FD000186812F0800F00F104051D6001D003683D
:101FE00002E05506FBD50388D00744BF42F020022B
:101FF00022601BB9226822F0200222601022B1E781
:102000007546B3FBF2F002FB1033CB5C05F8013DE3
:1020100003460028F5D1B7E708681A68496910F047
:10202000800F04D0101D18601368196007E010F0CD
:10203000400F02F1040018601368F6D019800023E5
:1020400023617546B1E71A68111D19601568626849
:1020500000212846FEF7C4F808B1401B60606368A1
:102060002361002384F843309FE723692A463946D9
:102070003046C0470130A2D023689B0707D5002512
:1020800004F11909E368039A9B1A9D4205DBE06895
:10209000039B9842B8BF184693E701234A46394646
:1020A0003046C04701308AD00135EBE7002BA7D17D
:1020B0000B7884F8423004F1420565E7B925000841
:1020C000A825000810B5431E0A44914200D110BD56
:1020D00011F8014B03F8014FF7E7884210B501EB07
:1020E000020303D8421E99420CD110BD9842F9D286
:1020F0008118D21AD34200D110BD13F8014D01F856
:10210000014DF7E711F8014B02F8014FEBE7000032
:1021100038B50546002945D051F8043C0C1F002B6A
:10212000B8BFE41800F0D6F81F4A1368104633B958
:10213000636014602846BDE8384000F0CCB8A34284
:102140000CD921686218934204BF1A685B68636007
:1021500004BF521822600460ECE713465A680AB1C3
:10216000A242FAD919685818A0420BD1206801443C
:10217000581882421960DDD1106852685A600144D3
:102180001960D7E702D90C232B60D3E72068211808
:102190008A4204BF11685268626004BF0918216056
:1021A0005C60C7E738BD00BF8808002070B5CD1C53
:1021B00025F0030508350C2D38BF0C25002D0646EB
:1021C00001DBA94203D90C233360002070BD00F06D
:1021D00081F8234A1468214691B9224C23681BB91F
:1021E000304600F067F820602946304600F062F87B
:1021F000431C26D10C233360304600F06CF8E4E732
:102200000B685B1B1AD40B2B0FD90B60CD50CC186D
:10221000304600F060F804F10B00231D20F00700A9
:10222000C31A1BD05A42E25070BD8C420DBF636886
:102230004B686360136018BF0C46E9E70C464968B9
:10224000CAE7C41C24F00304A04205D0211A30467A
:1022500000F030F80130CDD02560D9E770BD00BF67
:10226000880800208C080020F8B5074614460E4662
:1022700021B91146BDE8F840FFF798BF22B9FFF732
:1022800047FF25462846F8BD00F026F884420FD9BE
:1022900021463846FFF78AFF05460028F2D031462E
:1022A0002246FFF70FFF31463846FFF731FFE9E7D7
:1022B0003546E7E738B5064C002305460846236057
:1022C000FFF732FB431C02D1236803B12B6038BDFA
:1022D000600D00207047704751F8040C0028A0F1F1
:1022E0000400BCBF0B58C01870470000F8B500BF11
:1022F000F8BC08BC9E467047F8B500BFF8BC08BCE7
:042300009E4670473E
:1023040041540D0A004F4B004D6F64756C652045B8
:10231400726973696C6469210D0A004D6F64756C90
:10232400652045726973696C656D656469210D0A80
:102334000041542B43574D4F44453F0D0A002B4356
:10234400574D4F44453A31004D6F642061796172B5
:102354006920646F677275210D0A004D6F642061F6
:10236400796172692079616E6C6973210D0A00418B
:10237400542B43574D4F44453D310D0A0041542BD6
:1023840043574A41503D222573222C222573220DA6
:102394000A004261676C616E746920796170696CCE
:1023A4006469210D0A004261676C616E7469207969
:1023B4006170696C616D616469212042656B6C6553
:1023C4006E69796F7221210D0A004261676C616E3A
:1023D40074692062617361726973697A2E2054652D
:1023E4006B7261722064656E656E69796F7221210A
:1023F400210D0A0041542B43494653520D0A00490A
:102404005020416C696E64692121210D0A004369E1
:1024140068617A204950203D200D0A00495020412E
:102424006C696E616D61646921212054656B726110
:10243400722064656E656E69796F722121210D0ABF
:102444000041542B4349504D55583D310D0A00432A
:102454006F6B6C75206261676C616E746920646F68
:102464006772756C616E6469212121210D0A004334
:102474006F6B6C75206261676C616E746920646F48
:102484006772756C616E616D616469212121210D32
:102494000A0041542B4349505345525645523D314D
:1024A4002C38300D0A0053657276657220626173B0
:1024B4006C6164692121210D0A005365727665728D
:1024C400206261736C616D6164690D0A0047455453
:1024D4000041542B43495053454E443D25642C251B
:1024E400640D0A003C62723E3C6120687265663D80
:1024F40022203F70696E3D6F6666223E3C627574B1
:10250400746F6E20747970653D27627574746F6E94
:10251400273E4F46463C2F627574746F6E3E3C2FC7
:10252400613E003C62723E3C6120687265663D22F9
:10253400203F70696E3D6F6E223E3C627574746F0D
:102544006E20747970653D27627574746F6E273ED2
:102554004F4E3C2F627574746F6E3E3C2F613E008B
:102564003C686561643E2048656C6C6F20576F72EF
:102574006C64203C2F686561643E0000000000002C
:10258400000000010203040607080900000000011E
:10259400020304232D302B2000686C4C0065666711
:1025A40045464700303132333435363738394142C5
:1025B4004344454600303132333435363738396197
:0825C40062636465660000001B
:0825CC00E4DCFF7F01000000C8
:0425D400B501000845
:0425D8009101000865
:1025DC0001000000100000006425000853657274AF
:1025EC0032350000E8240008272500083132333149
:1025FC0032336173640000000024F40030000020CA
:10260C0000000000000000000000000000000000BE
:10261C0000000000000000000000000000000000AE
:10262C00000000000000000000000000000000009E
:10263C00000000000000000000000000000000008E
:10264C00000000000000000000000000000000007E
:10265C00000000000000000000000000000000006E
:04000005080019795D
:00000001FF
